:020000040000FA
:100000000A128A11DB2F00308A000408840A820752
:10001000003450346F347434203420342034463467
:100020006F3474346F342034203443346F346E347E
:0C003000743400342E34003430340034BA
:1002C2007B3414344E344034F1007108143EF00093
:1002D2007008F2007208080064008001840A0406B3
:1002E2000319003404066E290A128A1191210A1296
:1002F2008A1183160313111408000A128A1191211C
:100302000A128A1183160313111508000A128A11A0
:1003120091210A128A1170088312031393000800B4
:1003220083160313141996299729912911081F3945
:10033200031D9C299D299129080083160317880112
:100342008901831603138601880183120313860130
:1003520088010800F20083120313881272088600D3
:100362008817B329B42900008312031388130730B6
:10037200F1007D30F000F00BBC29F10BBC29080024
:10038200F2008312031388167208860088170D3054
:10039200F000F00BCA298312031388130730F1000F
:1003A2007D30F000F00BD329F10BD3290800831222
:1003B2000313BD000A30F9000030FA003D08BA000C
:1003C200BB013A08FB003B08FC000A128A11962383
:1003D2000A128A11790883120313BC003C08BE007A
:1003E2003E080800F5007503031DF829F929052ABE
:1003F20073087F3EF4007408F60076080A128A1128
:10040200AB210A128A11162A02307506031D0A2A26
:100412000B2A162A7308BF3EF4007408F600760809
:100422000A128A11AB210A128A110800F500F3019F
:10043200F4012E2A7308750784000A128A11032018
:100442000A128A110A128A11C1210A128A11013072
:10045200F3070318F40A0030F407730875078400E1
:100462000A128A1103200A128A11003A031D3A2A3B
:100472003B2A1B2A0800F401F501701C412A422A7A
:10048200482A7208F4070318F50A7308F5070130C1
:100492000310F20DF30DFF3E031D492A0130031034
:1004A200F10CF00CFF3E031D502A70087104031D6D
:1004B2005B2A5C2A3E2A7508F1007408F0000800E5
:1004C20083120313BD000A30F9000030FA000A302B
:1004D200F0000030F1003D08BA00BB013A08F2001A
:1004E2003B08F3000A128A1157240A128A11710872
:1004F200FC007008FB000A128A1196230A128A1164
:10050200790883120313BC003C08BE003E080800B1
:1005120083120313BD000A30F9000030FA003D08CF
:10052200BA00BB013A08F0003B08F1000A30F200C1
:100532000030F3000A128A113C220A128A11710851
:10054200FC007008FB000A128A1196230A128A1113
:10055200790883120313BC003C08BE003E08080061
:1005620083120313BD000A30F9000030FA003D087F
:10057200BA00BB013A08F0003B08F1006430F20017
:100582000030F3000A128A113C220A128A11710801
:10059200FC007008FB000A128A1196230A128A11C3
:1005A200790883120313BC003C08BE003E08080011
:1005B2000A128A1191210A128A11831603139115C4
:1005C2000A128A1191210A128A1183120313130843
:1005D200F200F3017208F4007308F5000A128A119E
:1005E20091210A128A1170037104031DF92AFA2A51
:1005F200FE2A831603139112012B831603139116FD
:1006020011167508F1007408F00008008312031334
:1006120014109410141194151412941683160313C3
:100622009101831203133808BC003908BD003A084F
:10063200BE003B08BF0002300310BC0DBD0DBE0D55
:10064200BF0DFF3E031D1D2B3F08F3003E08F200C5
:100652003D08F1003C08F0000030F7003D30F600A4
:100662000930F5000030F4000A128A11F1230A124F
:100672008A117008FF3E83160313930094018715B5
:10068200071608008312031386011430F400793030
:10069200F300F30B4A2BF40B4A2B4F2B30300A1288
:1006A2008A11AB210A128A110730F4007D30F3005F
:1006B200F30B592BF40B592B30300A128A11AB2150
:1006C2000A128A113530F300F30B652B30300A120F
:1006D2008A11AB210A128A113530F300F30B6F2B0A
:1006E20002300A128A11AB210A128A1138300A1218
:1006F2008A11AB210A128A1108300A128A11AB211F
:100702000A128A1101300A128A11AB210A128A11C5
:1007120006300A128A11AB210A128A110C300A120F
:100722008A11AB210A128A11080083120313B9013C
:10073200FC1F9C2B9D2BA42BFB09FC09FB0A031914
:10074200FC0AB901B90AFA1FA72BA82BAD2BF9098C
:10075200FA09F90A0319FA0A79087A040319B22B79
:10076200B32BE22BB801B80AC12B01300310F90DEB
:10077200FA0DFF3E031DB72B0130FD007D08B807BF
:10078200FA1FC42BC52BB62B7A087C02031DCB2B78
:1007920079087B02031CCE2BCF2BD52B7908FB02C9
:1007A2007A08031CFC03FC0201300310FA0CF90C5A
:1007B200FF3E031DD62B0130B802031DE12BE22BB5
:1007C200C52B39080319E62BE72BEC2BFB09FC0997
:1007D200FB0A0319FC0A7C08FA007B08F9000800EE
:1007E2000030FC000030FB000030FA000030F9005D
:1007F20073087204710470040319002C012C4E2C2E
:10080200FD01FD0A112C0130F8000310F00DF10D6D
:10081200F20DF30DF80B062C0130F8007808FD07F5
:10082200F31F142C152C042C0130F8000310F90DC1
:10083200FA0DFB0DFC0DF80B172C73087702031D44
:100842002C2C72087602031D2C2C71087502031DD4
:100852002C2C70087402031C2F2C302C3F2C700897
:10086200F4027108031C710FF5027208031C720F67
:10087200F6027308031C730FF70279140130031098
:10088200F30CF20CF10CF00CFF3E031D402C013076
:10089200FD02031D4D2C4E2C152C7C08F3007B0809
:1008A200F2007A08F1007908F0000800F601F11F61
:1008B2005B2C5C2C632CF009F109F00A0319F10A94
:1008C200F601F60AF31F662C672C702CF209F30965
:1008D200F20A0319F30A0130F4007408F606F7016C
:1008E200F801700871040319772C782CAF2CF501EC
:1008F200F50A862C01300310F00DF10DFF3E031DA9
:100902007C2C0130F4007408F507F11F892C8A2C25
:100912007B2C01300310F70DF80DFF3E031D8B2CCD
:1009220071087302031D972C70087202031C9A2C23
:100932009B2CA22C7008F2027108031CF303F30231
:10094200771401300310F10CF00CFF3E031DA32CB1
:100952000130F502031DAE2CAF2C8A2C7608031948
:10096200B32CB42CB92CF709F809F70A0319F80AC1
:100972007808F1007708F00008000310720D730D7B
:10098200F4007408FA007A08031DC82CC92CD22C72
:100992000030F3000030F2000030F1000030F000CF
:1009A200372D7008F4007108F5007208F60073081C
:1009B200F7001F300310F70CF60CF50CF40CFF3E99
:1009C200031DDB2C7408F8007808F900F217FF30D9
:1009D200F005FF30F105FF30F2050030F3059630E7
:1009E200FA02FA1FF52CF62C102D7A08803A973E5F
:1009F2000318FC2CFD2CFE2CC92C01300310F30C27
:100A0200F20CF10CF00CFF3E031DFF2C0130F40040
:100A12007408FA07031D0E2D0F2DFE2C272D2030F2
:100A22007A02031C152D162D222DC92C0130F4003B
:100A32000310F00DF10DF20DF30DF40B192D013031
:100A4200FA027A08031D262D272D172D790803197E
:100A52002B2D2C2D372DF009F109F209F309F00A9B
:100A62000319F10A0319F20A0319F30A080083129F
:100A72000313B800380803193F2D402D542DF91FD8
:100A8200432D442D542D7609BA007709BB0078090D
:100A9200BC007909BD00BA0A0319BB0A0319BC0AD2
:100AA2000319BD0A5C2D7908BD007808BC007708DF
:100AB200BB007608BA007908780477047604031D2F
:100AC200632D642D6D2D0030F9000030F8000030E8
:100AD200F7000030F600F32D9630FA007A08B900DC
:100AE2007F2D0130FA007A08B90701300310BD0CDE
:100AF200BC0CBB0CBA0CFF3E031D772DFE303D052E
:100B0200031D842D852D722DA12D0130FA007A0846
:100B1200B9070130BA07003003180130BB070030B3
:100B220003180130BC07003003180130BD07013043
:100B32000310BD0CBC0CBB0CBA0CFF3E031D992D5F
:100B4200FF303D05031DA62DA72D862DB32D0130A7
:100B5200B9020130FA000310BA0DBB0DBC0DBD0D78
:100B6200FA0BAC2DBC1BB62DB72DBD2D02303902B0
:100B72000318BC2DBD2DA82D3918C02DC12DC92D8E
:100B8200FF30BA05FF30BB057F30BC05FF30BD0525
:100B92000310B90C3908FA00FB01FC01FD01183001
:100BA2000310FA0DFB0DFC0DFD0DFF3E031DD12DB3
:100BB2007A08BA047B08BB047C08BC047D08BD0427
:100BC20038080319E52DE62DEB2DF91FE92DEA2D45
:100BD200EB2DBD173D08F9003C08F8003B08F70073
:100BE2003A08F60008000A128A119E210A128A1196
:100BF200003083120313BB000130BA008630B90003
:100C0200A030B8000A128A1107230A128A110A12A6
:100C12008A1143230A128A110A128A1175210A12B1
:100C22008A111130F0000030F1000A128A11872176
:100C32000A128A110030F000F1000A128A11D92238
:100C42000A128A11700883120313C0004008B6000A
:100C52002130F0000030F1000A128A1187210A12B5
:100C62008A110030F000F1000A128A11D9220A1208
:100C72008A11700883120313C0004008B500313096
:100C8200F0000030F1000A128A1187210A128A113B
:100C92000030F000F1000A128A11D9220A128A11D8
:100CA200700883120313C0004008B4000A128A11AC
:100CB2007E210A128A110030F200F300831203131C
:100CC2003508C000C1014008F0004108F1000A12D5
:100CD2008A113C220A128A117008F6007108F70084
:100CE2000030F71BFF30F800F90001300A128A11B8
:100CF20038250A128A11790883120313A30078088F
:100D0200A2007708A1007608A00003300A128A1117
:100D1200D8210A128A1183120313C0004008B300BB
:100D220003300A128A1189220A128A1183120313CA
:100D3200C0004008B20003300A128A11B1220A121E
:100D42008A1183120313C0004008B1002308F30084
:100D52002208F2002108F1002008F0000A128A118C
:100D6200BE240A128A1170080A128A11D8210A12A4
:100D72008A1183120313C0004008B0002308F30055
:100D82002208F2002108F1002008F0000A128A115C
:100D9200BE240A128A1170080A128A1189220A12C2
:100DA2008A1183120313C0004008AF002308F30026
:100DB2002208F2002108F1002008F0000A128A112C
:100DC200BE240A128A1170080A128A11B1220A126A
:100DD2008A1183120313C0004008AE0034080A12BD
:100DE2008A11D8210A128A1183120313C000400803
:100DF200AD0034080A128A1161220A128A11831282
:100E02000313C0004008AC0033080A128A1165219E
:100E12000A128A1183120313C0004008AA00320882
:100E22000A128A1165210A128A1183120313C00061
:100E32004008A80031080A128A1165210A128A1193
:100E420083120313C0004008A60030080A128A1158
:100E520065210A128A1183120313C0004008AB00F5
:100E62002F080A128A1165210A128A1183120313AA
:100E7200C0004008A9002E080A128A1165210A1230
:100E82008A1183120313C0004008A7002D080A121A
:100E92008A1165210A128A1183120313C0004008C5
:100EA200A5002C080A128A1165210A128A118312DE
:100EB2000313C0004008A400F301F30A01300A1230
:100EC2008A11F3210A128A1101300A128A11172299
:100ED2000A128A11F301F30A02300A128A11F3216B
:100EE2000A128A11831203132A080A128A11C121D3
:100EF2000A128A1112300A128A1117220A128A1150
:100F02008312031328080A128A11C1210A128A11B4
:100F12008312031326080A128A11C1210A128A11A6
:100F2200073083120313C0004008F30002300A1294
:100F32008A11F3210A128A11831203132B080A124F
:100F42008A11C1210A128A1112300A128A11172239
:100F52000A128A118312031329080A128A11C12163
:100F62000A128A118312031327080A128A11C12155
:100F72000A128A110D3083120313C0004008F300D5
:100F820002300A128A11F3210A128A118312031300
:100F920025080A128A11C1210A128A118312031327
:100FA20024080A128A11C1210A128A110D2E0A126C
:100FB2008A1100280A128A1161210A128A11C200BA
:100FC2000A128A1162210A128A11C3000A128A11B4
:100FD20063210A128A11C4000A128A1164210A12B8
:100FE2008A11C50083132030840038300A128A1116
:0E0FF2006D210A128A1183010A128A11F42D50
:04400E00D4E0FFFFFC
:00000001FF
