:020000040000FA
:060000000A128A11F32F21
:1000100083120313A5000A30F9000030FA00250806
:10002000A200A3012208FB002308FC000A128A1583
:10003000A5270A128A11790883120313A400240841
:10004000A600260808000030FC000030FB0000304D
:10005000FA000030F9007308720471047004031987
:10006000322833288028FD01FD0A43280130F8009A
:100070000310F00DF10DF20DF30DF80B38280130DF
:10008000F8007808FD07F31F462847283628013076
:10009000F8000310F90DFA0DFB0DFC0DF80B4928C3
:1000A00073087702031D5E2872087602031D5E281E
:1000B00071087502031D5E2870087402031C612814
:1000C000622871287008F4027108031C710FF50290
:1000D0007208031C720FF6027308031C730FF702F9
:1000E000791401300310F30CF20CF10CF00CFF3E0C
:1000F000031D72280130FD02031D7F288028472838
:100100007C08F3007B08F2007A08F1007908F0001F
:100110000800F601F11F8D288E289528F009F109B5
:10012000F00A0319F10AF601F60AF31F9828992834
:10013000A228F209F309F20A0319F30A0130F400C4
:100140007408F606F701F801700871040319A9286C
:10015000AA28E128F501F50AB82801300310F00DAE
:10016000F10DFF3E031DAE280130F4007408F507C1
:10017000F11FBB28BC28AD2801300310F70DF80D86
:10018000FF3E031DBD2871087302031DC9287008B6
:100190007202031CCC28CD28D4287008F202710802
:1001A000031CF303F302771401300310F10CF00C7D
:1001B000FF3E031DD5280130F502031DE028E1288C
:1001C000BC2876080319E528E628EB28F709F80982
:1001D000F70A0319F80A7808F1007708F000080018
:1001E0000310831203133C0D3D0DBE003E08C400F6
:1001F0004408031DFC28FD2806290030BD000030FE
:10020000BC000030BB000030BA006B293A08BE00C9
:100210003B08BF003C08C0003D08C1001F30031070
:10022000C10CC00CBF0CBE0CFF3E031D0F293E08C5
:10023000C2004208C300BC17FF30BA05FF30BB053F
:10024000FF30BC050030BD059630C402C41F29290B
:100250002A2944294408803A973E03183029312935
:100260003229FD2801300310BD0CBC0CBB0CBA0CAC
:10027000FF3E031D33290130BE003E08C407031DA5
:100280004229432932295B2920304402031C492991
:100290004A295629FD280130BE000310BA0DBB0DB6
:1002A000BC0DBD0DBE0B4D290130C4024408031D19
:1002B0005A295B294B29430803195F2960296B29B7
:1002C000BA09BB09BC09BD09BA0A0319BB0A03195B
:1002D000BC0A0319BD0A0800F8007808031971293F
:1002E00072298629F31F7529762986297009FA0053
:1002F0007109FB007209FC007309FD00FA0A031979
:10030000FB0A0319FC0A0319FD0A8E297308FD0074
:100310007208FC007108FB007008FA007308720490
:1003200071047004031D952996299F290030F3005C
:100330000030F2000030F1000030F000252A963045
:10034000F4007408F900B1290130F4007408F907C9
:1003500001300310FD0CFC0CFB0CFA0CFF3E031DDE
:10036000A929FE307D05031DB629B729A429D32963
:100370000130F4007408F9070130FA07003003185F
:100380000130FB07003003180130FC070030031870
:100390000130FD0701300310FD0CFC0CFB0CFA0CC6
:1003A000FF3E031DCB29FF307D05031DD829D92928
:1003B000B829E5290130F9020130F4000310FA0DE3
:1003C000FB0DFC0DFD0DF40BDE29FC1BE829E929D2
:1003D000EF29023079020318EE29EF29DA2979187A
:1003E000F229F329FB29FF30FA05FF30FB057F30A6
:1003F000FC05FF30FD050310F90C7908F400F50148
:10040000F601F70118300310F40DF50DF60DF70D98
:10041000FF3E031D032A7408FA047508FB047608DE
:10042000FC047708FD0478080319172A182A1D2AE6
:10043000F31F1B2A1C2A1D2AFD177D08F3007C08C8
:10044000F2007B08F1007A08F00008000A128A1511
:100450005A250A128A11003083120313A3000130B7
:10046000A2008630A100A030A0000A128A159426AE
:100470000A128A110A128A1552270A128A11F301E6
:10048000F30A01300A128A1594250A128A110130E2
:100490000A128A15B8250A128A110A128A153125FC
:1004A0000A128A111130F0000030F1000A128A1588
:1004B00043250A128A110030F000F1000A128A1551
:1004C0002C260A128A11700883120313CB004B08E2
:1004D000EE000A128A153A250A128A110D3083128B
:1004E0000313CC00FB30CB00CB0B742ACC0B742A4B
:1004F0000A128A1531250A128A112130F0000030C3
:10050000F1000A128A1543250A128A110030F00000
:10051000F1000A128A152C260A128A117008831219
:100520000313CB004B08ED000A128A153A250A1274
:100530008A110D3083120313CC00FB30CB00CB0BA0
:100540009F2ACC0B9F2A0A128A1531250A128A117A
:100550003130F0000030F1000A128A1543250A12EA
:100560008A110030F000F1000A128A152C260A12B6
:100570008A11700883120313CB004B08EC000A1297
:100580008A153A250A128A110D3083120313CC0002
:10059000FB30CB00CB0BCA2ACC0BCA2A3C308312CF
:1005A0000313A300A030A200A030A100A130A0003E
:1005B0006E08CB00CC01CD01CE014E08F3004D08F2
:1005C000F2004C08F1004B08F00001300A128A11C9
:1005D0006C210A128A11730883120313A700720890
:1005E000A6007108A5007008A4000A128A119224BE
:1005F0000A128A11831203132308D6002208D50099
:100600002108D4002008D3003C30A300A030A20071
:10061000A030A100A130A0006D08CB00CC01CD011D
:10062000CE014E08F3004D08F2004C08F1004B08D3
:10063000F00001300A128A116C210A128A11730823
:1006400083120313A7007208A6007108A5007008A2
:10065000A4000A128A1192240A128A118312031327
:100660002308D2002208D1002108D0002008CF00A2
:100670005608BD005508BC005408BB005308BA001A
:100680000A128A11F0200A128A11831203133A08FF
:100690000A128A1108200A128A1183120313CB004E
:1006A0004B08EB005608C8005508C7005408C600A0
:1006B0005308C5000A128A15D0260A128A1183121D
:1006C0000313CB004B08EA005608C8005508C700C2
:1006D0005408C6005308C5000A128A1511270A12C9
:1006E0008A1183120313CB004B08E9005208BD00A6
:1006F0005108BC005008BB004F08BA000A128A110A
:10070000F0200A128A11831203133A080A128A117E
:1007100008200A128A1183120313CB004B08E7004A
:100720005208C8005108C7005008C6004F08C5004D
:100730000A128A15D0260A128A1183120313CB00DB
:100740004B08E6005208C8005108C7005008C60010
:100750004F08C5000A128A1511270A128A1183123E
:100760000313CB004B08E5006C080A128A1108201D
:100770000A128A1183120313CB004B08E4006C08A1
:100780000A128A1504260A128A1183120313CB0057
:100790004B08E3006B080A128A1521250A128A11F8
:1007A00083120313CB004B08E1006A080A128A1572
:1007B00021250A128A1183120313CB004B08DF0094
:1007C00069080A128A1521250A128A118312031355
:1007D000CB004B08DD0067080A128A1521250A1292
:1007E0008A1183120313CB004B08E20066080A1239
:1007F0008A1521250A128A1183120313CB004B0894
:10080000E00065080A128A1521250A128A1183124E
:100810000313CB004B08DE0064080A128A15212559
:100820000A128A1183120313CB004B08DC00630801
:100830000A128A1521250A128A1183120313CB008A
:100840004B08DB00F301F30A02300A128A159425E3
:100850000A128A118312031361080A128A157D2570
:100860000A128A1112300A128A15B8250A128A1140
:10087000831203135F080A128A157D250A128A1152
:10088000831203135D080A128A157D250A128A1144
:10089000073083120313CB004B08F30002300A1217
:1008A0008A1594250A128A118312031362080A1208
:1008B0008A157D250A128A1112300A128A15B82566
:1008C0000A128A118312031360080A128A157D2501
:1008D0000A128A11831203135E080A128A157D25F3
:1008E0000A128A110D3083120313CB004B08F30058
:1008F00002300A128A1594250A128A1183120313F0
:100900005C080A128A157D250A128A1183120313C4
:100910005B080A128A157D250A128A113F2A0A12DB
:100920008A1100288312031323088039A80028089D
:10093000AD002308A8002807A9002908B300A21FBA
:10094000A22CA32CA42C331433080319A82CA92CF3
:10095000B82C330A031DAD2CAE2CB62C0030A300EE
:100960000030A2000030A1000030A000A217C02C6F
:100970000030A3000030A2000030A1000030A00031
:1009800027088039A8002808AD062708A8002807EE
:10099000A9002908B200A61FCE2CCF2CD02C3214CF
:1009A00032080319D42CD52CE42C320A031DD92C7F
:1009B000DA2CE22C0030A7000030A6000030A500A1
:1009C0000030A400A617EC2C0030A7000030A600D1
:1009D0000030A5000030A40032080319F02CF12CDF
:1009E000F62C3308031DF52CF62CFF2C0030A30049
:1009F0000030A2000030A1000030A000F22F20083B
:100A0000A8002808F00026080A128A15DD250A1217
:100A10008A11710883120313B9007008B8003808EE
:100A2000A800A901AA01AB012B08B1002A08B00057
:100A30002908AF002808AE003908A800A901AA01BA
:100A4000AB012B08B7002A08B6002908B500280812
:100A5000B4002108A8002808F00025080A128A1509
:100A6000DD250A128A11710883120313B900700878
:100A7000B8003808A800A901AA01AB012808AE07F0
:100A8000290803110318013E0319472DAF072A084F
:100A900003110318013E03194E2DB0072B08031153
:100AA0000318013E0319552DB1073908A800A90103
:100AB000AA01AB012808B407290803110318013E55
:100AC0000319632DB5072A0803110318013E031902
:100AD0006A2DB6072B0803110318013E0319712D67
:100AE000B7072208A8002808F00024080A128A156F
:100AF000DD250A128A11710883120313B9007008E8
:100B0000B8003808A800A901AA01AB012808AE075F
:100B1000290803110318013E03198F2DAF072A0876
:100B200003110318013E0319962DB0072B0803117A
:100B30000318013E03199D2DB1073908A800A9012A
:100B4000AA01AB012808B407290803110318013EC4
:100B50000319AB2DB5072A0803110318013E031929
:100B6000B22DB6072B0803110318013E0319B92D46
:100B7000B7070830A8000310AE0DAF0DB00DB10DD2
:100B8000A80BBB2D2108A8002808F00024080A1291
:100B90008A15DD250A128A11710883120313B90020
:100BA0007008B8003808A8003908A900AA01AB01EC
:100BB0002808AE07290803110318013E0319E12D87
:100BC000AF072A0803110318013E0319E82DB007E7
:100BD0002B0803110318013E0319EF2DB10720085C
:100BE000A8002808F00025080A128A15DD250A1237
:100BF0008A11710883120313B9007008B80038080D
:100C0000A8003908A900AA01AB012808AE072908E5
:100C100003110318013E03190E2EAF072A08031112
:100C20000318013E0319152EB0072B0803110318F2
:100C3000013E03191C2EB1070830A8000310AE0DA9
:100C4000AF0DB00DB10DA80B1E2E2008A80028086E
:100C5000F00024080A128A15DD250A128A1171088B
:100C600083120313B9007008B8003808A8003908C7
:100C7000A900AA01AB012808AE072908031103182F
:100C8000013E0319442EAF072A0803110318013E41
:100C900003194B2EB0072B0803110318013E03194B
:100CA000522EB1072108A8002808F00026080A12D1
:100CB0008A15DD250A128A11710883120313B900FF
:100CC0007008B8003808A8003908A900AA01AB01CB
:100CD0002808B407290803110318013E0319712ECF
:100CE000B5072A0803110318013E0319782EB60729
:100CF0002B0803110318013E03197F2EB7072208A2
:100D0000A8002808F00025080A128A15DD250A1215
:100D10008A11710883120313B9007008B8003808EB
:100D2000A8003908A900AA01AB012808B4072908BE
:100D300003110318013E03199E2EB5072A0803115B
:100D40000318013E0319A52EB6072B08031103183B
:100D5000013E0319AC2EB7072208A8002808F000AE
:100D600026080A128A15DD250A128A1171088312D3
:100D70000313B9007008B8003808A8003908A900A2
:100D8000AA01AB0108300310A80DA90DAA0DAB0DE7
:100D9000FF3E031DC32E2808B407290803110318BA
:100DA000013E0319D42EB5072A0803110318013E8A
:100DB0000319DB2EB6072B0803110318013E031994
:100DC000E22EB7072E08A8002F08A9003008AA00B5
:100DD0003108AB0018300310AB0CAA0CA90CA80CFE
:100DE000FF3E031DEB2E2808B40729080311031842
:100DF000013E0319FC2EB5072A0803110318013E12
:100E00000319032FB6072B0803110318013E03191A
:100E10000A2FB7070830A8000310AE0DAF0DB00DB4
:100E2000B10DA80B0C2F33083207A800A901A90D9A
:100E30002808823EB80029080318013EFF3EB90089
:100E40003E2F0130A8000310B40DB50DB60DB70D3F
:100E5000A80B232FB11F2D2F2E2F2F2F341401302D
:100E6000A8000310AE0DAF0DB00DB10DA80B312FC2
:100E7000FF30B8070318B90AFF30B907B61F412F72
:100E8000422F212FB201B11F462F472F632FFF3072
:100E90002E05A800FF302F05A900FF303005AA005D
:100EA0007F303105AB002B082A04290428040319DC
:100EB0005A2F5B2F5E2FB201B20A632F341C612FB1
:100EC000622F632F5B2F32080319672F682F992F2A
:100ED0000130B407003003180130B50700300318A3
:100EE0000130B607003003180130B707371C792FDF
:100EF0007A2F992F3408A8003508A9003608AA00CF
:100F00003708AB000130AC002B0DAB0CAA0CA90CC0
:100F1000A80CAC0B842F2B08B7002A08B6002908B0
:100F2000B5002808B4000130B8070318B90A00302A
:100F3000B9073908803AFF0080307F02031DA22FD5
:100F4000FF303802031CA52FA62FB12F7F3083124C
:100F50000313B7008030B6000030B5000030B40095
:100F6000E62F831203133908803AFF0080307F0296
:100F7000031DBC2F013038020318BF2FC02FCC2F08
:100F8000003083120313B7000030B6000030B50004
:100F90000030B400AD01E62F831203133808A80017
:100FA0002808B300FF30B405FF30B5057F30B60523
:100FB0000030B705331CDD2FDE2FDF2FB6173308C7
:100FC000A8000310280CA9002908B7002D08A800C4
:100FD0002808B7043708A3003608A2003508A10086
:100FE0003408A000080083134F30840070300A12C8
:100FF0008A1529250A128A1183010A128A11262AC2
:1010000008308A000408840A8207003450346F34A0
:10101000743420342034203446346F3474346F34C4
:101020002034203443346F346E34743400342E341E
:0210300000348A
:101A4200F1007108303EF0007008F20072080800E0
:101A520064008001840A04060319003404062A2D56
:101A62000A128A154D250A128A15831603131114B8
:101A720008000A128A154D250A128A1583160313C5
:101A8200111508000A128A154D250A128A157008C6
:101A92008312031393000800831603131419522DA3
:101AA200532D4D2D11081F39031D582D592D4D2D24
:101AB2000800831603178801890183160313860120
:101AC200880183120313860188010800F200831241
:101AD200031388127208860088176F2D702D00007C
:101AE2008312031388130730F1007D30F000F00BEE
:101AF200782DF10B782D0800F2008312031388165B
:101B02007208860088170D30F000F00B862D8312C4
:101B1200031388130730F1007D30F000F00B8F2D96
:101B2200F10B8F2D0800F5007503031D992D9A2DD9
:101B3200A62D73087F3EF4007408F60076080A1298
:101B42008A1567250A128A15B72D02307506031DFC
:101B5200AB2DAC2DB72D7308BF3EF4007408F60010
:101B620076080A128A1567250A128A150800F500F6
:101B7200F301F401CF2D7308750784000A128A1548
:101B820000200A128A150A128A157D250A128A1560
:101B92000130F3070318F40A0030F40773087507DD
:101BA20084000A128A1500200A128A15003A031DBF
:101BB200DB2DDC2DBC2D0800F800F401F5017008C6
:101BC200F200F3017208F6007308F700781CEA2DA0
:101BD200EB2DF12D7608F4070318F50A7708F507BF
:101BE20001300310F60DF70DFF3E031DF22D031019
:101BF200F80C7808031DFE2DFF2DE72D7508F10066
:101C02007408F000080083120313A5000A30F900DB
:101C12000030FA000A30F0000030F1002508A2007E
:101C2200A3012208F2002308F3000A128A11892074
:101C32000A128A157108FC007008FB000A128A1544
:101C4200A5270A128A15790883120313A40024080F
:101C5200A600260808000A128A154D250A128A15BE
:101C62008316031391150A128A154D250A128A1535
:101C7200831203131308F200F3017208F4007308CD
:101C8200F5000A128A154D250A128A15700371048D
:101C9200031D4C2E4D2E512E831603139112542EDA
:101CA20083160313911611167508F1007408F000DB
:101CB20008007008710403195F2E602E8F2EF50143
:101CC200F50A6E2E01300310F00DF10DFF3E031DDB
:101CD200642E0130F4007408F507F11F712E722E84
:101CE200632E71087302031D782E70087202031CA2
:101CF2007B2E7C2E822E7008F2027108031CF303E5
:101D0200F30201300310F10CF00CFF3E031D832E91
:101D12000130F502031D8E2E8F2E722E7308F100F4
:101D22007208F000080083120313141094101411A7
:101D3200941514129416831603139101831203133C
:101D42002008A4002108A5002208A6002308A70055
:101D520002300310A40DA50DA60DA70DFF3E031D15
:101D6200AA2E2708F3002608F2002508F10024080D
:101D7200F0000030F7003D30F6000930F500003089
:101D8200F4000A128A1123200A128A157008FF3EF3
:101D92008316031393009401871507160800831214
:101DA20003134808A7004708A6004608A5004508EF
:101DB200A4004130A3002030A2000030A100003076
:101DC200A0000A128A1192240A128A15831203139E
:101DD2002308BD002208BC002108BB002008BA006D
:101DE2000A128A11F0200A128A15831203133B0881
:101DF200CA003A08C9000A30F0000030F1004A086F
:101E0200F3004908F2000A128A155A260A128A15A4
:101E1200710883120313CA007008C9004908080038
:101E2200831203134808A7004708A6004608A50026
:101E32004508A4004230A300C830A2000030A1002F
:101E42000030A0000A128A1192240A128A15831203
:101E520003132308BD002208BC002108BB00200890
:101E6200BA000A128A11F0200A128A158312031389
:101E72003B08CA003A08C9000A30F0000030F100FD
:101E82004A08F3004908F2000A128A155A260A1271
:101E92008A15710883120313CA007008C900490821
:101EA20008008312031386011430F4007930F30022
:101EB200F30B592FF40B592F5E2F30300A128A156B
:101EC20067250A128A150730F4007D30F300F30B00
:101ED200682FF40B682F30300A128A1567250A1210
:101EE2008A153530F300F30B742F30300A128A153D
:101EF20067250A128A153530F300F30B7E2F023064
:101F02000A128A1567250A128A1538300A128A15AA
:101F120067250A128A1508300A128A1567250A12DD
:101F22008A1501300A128A1567250A128A150630A7
:101F32000A128A1567250A128A150C300A128A15A6
:101F420067250A128A15080083120313A101FC1FD8
:101F5200AB2FAC2FB32FFB09FC09FB0A0319FC0AB8
:101F6200A101A10AFA1FB62FB72FBC2FF909FA094E
:101F7200F90A0319FA0A79087A040319C12FC22F40
:101F8200F12FA001A00AD02F01300310F90DFA0D94
:101F9200FF3E031DC62F0130FD007D08A007FA1F7A
:101FA200D32FD42FC52F7A087C02031DDA2F79088C
:101FB2007B02031CDD2FDE2FE42F7908FB027A0857
:101FC200031CFC03FC0201300310FA0CF90CFF3E67
:101FD200031DE52F0130A002031DF02FF12FD42F96
:101FE20021080319F52FF62FFB2FFB09FC09FB0A29
:0E1FF2000319FC0A7C08FA007B08F9000800BD
:04400E00D4E0FFFFFC
:00000001FF
